{
  "_format": "hh-sol-artifact-1",
  "contractName": "CodeIPFS",
  "sourceName": "contracts/CodeIPFS.sol",
  "abi": [
    {
      "inputs": [],
      "name": "buyContract",
      "outputs": [],
      "stateMutability": "payable",
      "type": "function"
    },
    {
      "inputs": [
        {
          "internalType": "uint256",
          "name": "_id",
          "type": "uint256"
        }
      ],
      "name": "getHash",
      "outputs": [
        {
          "internalType": "string",
          "name": "",
          "type": "string"
        }
      ],
      "stateMutability": "view",
      "type": "function"
    },
    {
      "inputs": [],
      "name": "getOwners",
      "outputs": [
        {
          "internalType": "address[]",
          "name": "",
          "type": "address[]"
        }
      ],
      "stateMutability": "view",
      "type": "function"
    },
    {
      "inputs": [
        {
          "internalType": "uint256",
          "name": "",
          "type": "uint256"
        }
      ],
      "name": "ipfsHashes",
      "outputs": [
        {
          "internalType": "string",
          "name": "",
          "type": "string"
        }
      ],
      "stateMutability": "view",
      "type": "function"
    },
    {
      "inputs": [
        {
          "internalType": "uint256",
          "name": "",
          "type": "uint256"
        }
      ],
      "name": "owners",
      "outputs": [
        {
          "internalType": "address",
          "name": "",
          "type": "address"
        }
      ],
      "stateMutability": "view",
      "type": "function"
    },
    {
      "inputs": [
        {
          "internalType": "uint256",
          "name": "_id",
          "type": "uint256"
        },
        {
          "internalType": "string",
          "name": "_hash",
          "type": "string"
        }
      ],
      "name": "setHash",
      "outputs": [],
      "stateMutability": "nonpayable",
      "type": "function"
    },
    {
      "inputs": [
        {
          "internalType": "address",
          "name": "",
          "type": "address"
        }
      ],
      "name": "shares",
      "outputs": [
        {
          "internalType": "uint256",
          "name": "",
          "type": "uint256"
        }
      ],
      "stateMutability": "view",
      "type": "function"
    }
  ],
  "bytecode": "0x608060405234801561001057600080fd5b50611018806100206000396000f3fe6080604052600436106100705760003560e01c8063a0e67e2b1161004e578063a0e67e2b14610118578063a4de2f5c14610143578063ce7c2ac214610180578063de866db1146101bd57610070565b8063025e7c27146100755780632fbaba26146100b25780636b2fafa9146100db575b600080fd5b34801561008157600080fd5b5061009c6004803603810190610097919061070f565b6101c7565b6040516100a9919061077d565b60405180910390f35b3480156100be57600080fd5b506100d960048036038101906100d491906108de565b610206565b005b3480156100e757600080fd5b5061010260048036038101906100fd919061070f565b61032b565b60405161010f91906109b9565b60405180910390f35b34801561012457600080fd5b5061012d6103cf565b60405161013a9190610a99565b60405180910390f35b34801561014f57600080fd5b5061016a6004803603810190610165919061070f565b61045d565b60405161017791906109b9565b60405180910390f35b34801561018c57600080fd5b506101a760048036038101906101a29190610ae7565b6104fd565b6040516101b49190610b23565b60405180910390f35b6101c5610515565b005b600281815481106101d757600080fd5b906000526020600020016000915054906101000a900473ffffffffffffffffffffffffffffffffffffffff1681565b8060008084815260200190815260200160002090816102259190610d4a565b506000600160003373ffffffffffffffffffffffffffffffffffffffff1673ffffffffffffffffffffffffffffffffffffffff16815260200190815260200160002054036102d1576002339080600181540180825580915050600190039060005260206000200160009091909190916101000a81548173ffffffffffffffffffffffffffffffffffffffff021916908373ffffffffffffffffffffffffffffffffffffffff1602179055505b60018060003373ffffffffffffffffffffffffffffffffffffffff1673ffffffffffffffffffffffffffffffffffffffff16815260200190815260200160002060008282546103209190610e4b565b925050819055505050565b6060600080838152602001908152602001600020805461034a90610b6d565b80601f016020809104026020016040519081016040528092919081815260200182805461037690610b6d565b80156103c35780601f10610398576101008083540402835291602001916103c3565b820191906000526020600020905b8154815290600101906020018083116103a657829003601f168201915b50505050509050919050565b6060600280548060200260200160405190810160405280929190818152602001828054801561045357602002820191906000526020600020905b8160009054906101000a900473ffffffffffffffffffffffffffffffffffffffff1673ffffffffffffffffffffffffffffffffffffffff1681526020019060010190808311610409575b5050505050905090565b6000602052806000526040600020600091509050805461047c90610b6d565b80601f01602080910402602001604051908101604052809291908181526020018280546104a890610b6d565b80156104f55780601f106104ca576101008083540402835291602001916104f5565b820191906000526020600020905b8154815290600101906020018083116104d857829003601f168201915b505050505081565b60016020528060005260406000206000915090505481565b60003411610558576040517f08c379a000000000000000000000000000000000000000000000000000000000815260040161054f90610ef1565b60405180910390fd5b6000600a346105679190610f40565b905060005b6002805490508110156106a3576002818154811061058d5761058c610f71565b5b9060005260206000200160009054906101000a900473ffffffffffffffffffffffffffffffffffffffff1673ffffffffffffffffffffffffffffffffffffffff166108fc60028054905060016000600286815481106105ef576105ee610f71565b5b9060005260206000200160009054906101000a900473ffffffffffffffffffffffffffffffffffffffff1673ffffffffffffffffffffffffffffffffffffffff1673ffffffffffffffffffffffffffffffffffffffff16815260200190815260200160002054856106609190610fa0565b61066a9190610f40565b9081150290604051600060405180830381858888f19350505050158015610695573d6000803e3d6000fd5b50808060010191505061056c565b506106c260028054905060405180602001604052806000815250610206565b50565b6000604051905090565b600080fd5b600080fd5b6000819050919050565b6106ec816106d9565b81146106f757600080fd5b50565b600081359050610709816106e3565b92915050565b600060208284031215610725576107246106cf565b5b6000610733848285016106fa565b91505092915050565b600073ffffffffffffffffffffffffffffffffffffffff82169050919050565b60006107678261073c565b9050919050565b6107778161075c565b82525050565b6000602082019050610792600083018461076e565b92915050565b600080fd5b600080fd5b6000601f19601f8301169050919050565b7f4e487b7100000000000000000000000000000000000000000000000000000000600052604160045260246000fd5b6107eb826107a2565b810181811067ffffffffffffffff8211171561080a576108096107b3565b5b80604052505050565b600061081d6106c5565b905061082982826107e2565b919050565b600067ffffffffffffffff821115610849576108486107b3565b5b610852826107a2565b9050602081019050919050565b82818337600083830152505050565b600061088161087c8461082e565b610813565b90508281526020810184848401111561089d5761089c61079d565b5b6108a884828561085f565b509392505050565b600082601f8301126108c5576108c4610798565b5b81356108d584826020860161086e565b91505092915050565b600080604083850312156108f5576108f46106cf565b5b6000610903858286016106fa565b925050602083013567ffffffffffffffff811115610924576109236106d4565b5b610930858286016108b0565b9150509250929050565b600081519050919050565b600082825260208201905092915050565b60005b83811015610974578082015181840152602081019050610959565b60008484015250505050565b600061098b8261093a565b6109958185610945565b93506109a5818560208601610956565b6109ae816107a2565b840191505092915050565b600060208201905081810360008301526109d38184610980565b905092915050565b600081519050919050565b600082825260208201905092915050565b6000819050602082019050919050565b610a108161075c565b82525050565b6000610a228383610a07565b60208301905092915050565b6000602082019050919050565b6000610a46826109db565b610a5081856109e6565b9350610a5b836109f7565b8060005b83811015610a8c578151610a738882610a16565b9750610a7e83610a2e565b925050600181019050610a5f565b5085935050505092915050565b60006020820190508181036000830152610ab38184610a3b565b905092915050565b610ac48161075c565b8114610acf57600080fd5b50565b600081359050610ae181610abb565b92915050565b600060208284031215610afd57610afc6106cf565b5b6000610b0b84828501610ad2565b91505092915050565b610b1d816106d9565b82525050565b6000602082019050610b386000830184610b14565b92915050565b7f4e487b7100000000000000000000000000000000000000000000000000000000600052602260045260246000fd5b60006002820490506001821680610b8557607f821691505b602082108103610b9857610b97610b3e565b5b50919050565b60008190508160005260206000209050919050565b60006020601f8301049050919050565b600082821b905092915050565b600060088302610c007fffffffffffffffffffffffffffffffffffffffffffffffffffffffffffffffff82610bc3565b610c0a8683610bc3565b95508019841693508086168417925050509392505050565b6000819050919050565b6000610c47610c42610c3d846106d9565b610c22565b6106d9565b9050919050565b6000819050919050565b610c6183610c2c565b610c75610c6d82610c4e565b848454610bd0565b825550505050565b600090565b610c8a610c7d565b610c95818484610c58565b505050565b5b81811015610cb957610cae600082610c82565b600181019050610c9b565b5050565b601f821115610cfe57610ccf81610b9e565b610cd884610bb3565b81016020851015610ce7578190505b610cfb610cf385610bb3565b830182610c9a565b50505b505050565b600082821c905092915050565b6000610d2160001984600802610d03565b1980831691505092915050565b6000610d3a8383610d10565b9150826002028217905092915050565b610d538261093a565b67ffffffffffffffff811115610d6c57610d6b6107b3565b5b610d768254610b6d565b610d81828285610cbd565b600060209050601f831160018114610db45760008415610da2578287015190505b610dac8582610d2e565b865550610e14565b601f198416610dc286610b9e565b60005b82811015610dea57848901518255600182019150602085019450602081019050610dc5565b86831015610e075784890151610e03601f891682610d10565b8355505b6001600288020188555050505b505050505050565b7f4e487b7100000000000000000000000000000000000000000000000000000000600052601160045260246000fd5b6000610e56826106d9565b9150610e61836106d9565b9250828201905080821115610e7957610e78610e1c565b5b92915050565b7f5061796d656e7420726571756972656420746f2062757920636f6e747261637460008201527f2e00000000000000000000000000000000000000000000000000000000000000602082015250565b6000610edb602183610945565b9150610ee682610e7f565b604082019050919050565b60006020820190508181036000830152610f0a81610ece565b9050919050565b7f4e487b7100000000000000000000000000000000000000000000000000000000600052601260045260246000fd5b6000610f4b826106d9565b9150610f56836106d9565b925082610f6657610f65610f11565b5b828204905092915050565b7f4e487b7100000000000000000000000000000000000000000000000000000000600052603260045260246000fd5b6000610fab826106d9565b9150610fb6836106d9565b9250828202610fc4816106d9565b91508282048414831517610fdb57610fda610e1c565b5b509291505056fea264697066735822122075f6b5db5e459a4a6b94daebb32742c103b75487f6a1a9c9032261b606f638a164736f6c63430008180033",
  "linkReferences": {},
  "deployedLinkReferences": {}
}